{
  "address": "0xe7f1725E7734CE288F8367e1Bb143E90bb3F0512",
  "abi": [
    {
      "inputs": [],
      "name": "TaskTwo_RulesViolated",
      "type": "error"
    },
    {
      "inputs": [
        {
          "components": [
            {
              "internalType": "uint256",
              "name": "expiryDate",
              "type": "uint256"
            },
            {
              "internalType": "uint256",
              "name": "disbursedDate",
              "type": "uint256"
            }
          ],
          "internalType": "struct Task2.DateObj[]",
          "name": "dates",
          "type": "tuple[]"
        }
      ],
      "name": "validate",
      "outputs": [],
      "stateMutability": "view",
      "type": "function"
    }
  ],
  "transactionHash": "0xabc660cd231affc1694221678564b9edc3af9049fd3701f90140964901f9f373",
  "args": [],
  "numDeployments": 1,
  "solcInputHash": "414031e619b3613b3af3b6e513db7e5e",
  "bytecode": "0x608060405262ed4e00600055348015601657600080fd5b50610400806100266000396000f3fe608060405234801561001057600080fd5b506004361061002b5760003560e01c80633ea7346914610030575b600080fd5b61004a600480360381019061004591906102ef565b61004c565b005b60008151905060005b818110156100f257600083828151811061007257610071610338565b5b60200260200101516020015184838151811061009157610090610338565b5b6020026020010151600001516100a79190610396565b905060005481116100e4576040517ffa471b7200000000000000000000000000000000000000000000000000000000815260040160405180910390fd5b508080600101915050610055565b505050565b6000604051905090565b600080fd5b600080fd5b600080fd5b6000601f19601f8301169050919050565b7f4e487b7100000000000000000000000000000000000000000000000000000000600052604160045260246000fd5b61015982610110565b810181811067ffffffffffffffff8211171561017857610177610121565b5b80604052505050565b600061018b6100f7565b90506101978282610150565b919050565b600067ffffffffffffffff8211156101b7576101b6610121565b5b602082029050602081019050919050565b600080fd5b600080fd5b6000819050919050565b6101e5816101d2565b81146101f057600080fd5b50565b600081359050610202816101dc565b92915050565b60006040828403121561021e5761021d6101cd565b5b6102286040610181565b90506000610238848285016101f3565b600083015250602061024c848285016101f3565b60208301525092915050565b600061026b6102668461019c565b610181565b9050808382526020820190506040840283018581111561028e5761028d6101c8565b5b835b818110156102b757806102a38882610208565b845260208401935050604081019050610290565b5050509392505050565b600082601f8301126102d6576102d561010b565b5b81356102e6848260208601610258565b91505092915050565b60006020828403121561030557610304610101565b5b600082013567ffffffffffffffff81111561032357610322610106565b5b61032f848285016102c1565b91505092915050565b7f4e487b7100000000000000000000000000000000000000000000000000000000600052603260045260246000fd5b7f4e487b7100000000000000000000000000000000000000000000000000000000600052601160045260246000fd5b60006103a1826101d2565b91506103ac836101d2565b92508282039050818111156103c4576103c3610367565b5b9291505056fea26469706673582212208061545847b50e863e6702b0f64ad4f2302fd1ce320c310e1a2e6d0c64a29e8f64736f6c634300081c0033",
  "devdoc": {
    "kind": "dev",
    "methods": {},
    "version": 1
  },
  "userdoc": {
    "kind": "user",
    "methods": {},
    "version": 1
  },
  "storageLayout": {
    "storage": [
      {
        "astId": 141,
        "contract": "contracts/task2.sol:Task2",
        "label": "timeDifferance",
        "offset": 0,
        "slot": "0",
        "type": "t_uint256"
      }
    ],
    "types": {
      "t_uint256": {
        "encoding": "inplace",
        "label": "uint256",
        "numberOfBytes": "32"
      }
    }
  }
}