{
  "address": "0x5FbDB2315678afecb367f032d93F642f64180aa3",
  "abi": [
    {
      "inputs": [],
      "name": "TaskTwo_RulesViolated",
      "type": "error"
    },
    {
      "inputs": [
        {
          "components": [
            {
              "internalType": "uint256",
              "name": "expiryDate",
              "type": "uint256"
            },
            {
              "internalType": "uint256",
              "name": "disbursedDate",
              "type": "uint256"
            }
          ],
          "internalType": "struct Task2.DateObj[]",
          "name": "dates",
          "type": "tuple[]"
        }
      ],
      "name": "validate",
      "outputs": [],
      "stateMutability": "view",
      "type": "function"
    }
  ],
  "transactionHash": "0x1e8fb24a989c6d23464e95dec2e5595547279c0bf7140d968d8243da979a530d",
  "args": [],
  "numDeployments": 1,
  "solcInputHash": "a07906192eb0620c6b8119b635654edc",
  "bytecode": "0x608060405262ed4e00600055348015601657600080fd5b50610400806100266000396000f3fe608060405234801561001057600080fd5b506004361061002b5760003560e01c80633ea7346914610030575b600080fd5b61004a600480360381019061004591906102ef565b61004c565b005b60008151905060005b818110156100f257600083828151811061007257610071610338565b5b60200260200101516020015184838151811061009157610090610338565b5b6020026020010151600001516100a79190610396565b905060005481116100e4576040517ffa471b7200000000000000000000000000000000000000000000000000000000815260040160405180910390fd5b508080600101915050610055565b505050565b6000604051905090565b600080fd5b600080fd5b600080fd5b6000601f19601f8301169050919050565b7f4e487b7100000000000000000000000000000000000000000000000000000000600052604160045260246000fd5b61015982610110565b810181811067ffffffffffffffff8211171561017857610177610121565b5b80604052505050565b600061018b6100f7565b90506101978282610150565b919050565b600067ffffffffffffffff8211156101b7576101b6610121565b5b602082029050602081019050919050565b600080fd5b600080fd5b6000819050919050565b6101e5816101d2565b81146101f057600080fd5b50565b600081359050610202816101dc565b92915050565b60006040828403121561021e5761021d6101cd565b5b6102286040610181565b90506000610238848285016101f3565b600083015250602061024c848285016101f3565b60208301525092915050565b600061026b6102668461019c565b610181565b9050808382526020820190506040840283018581111561028e5761028d6101c8565b5b835b818110156102b757806102a38882610208565b845260208401935050604081019050610290565b5050509392505050565b600082601f8301126102d6576102d561010b565b5b81356102e6848260208601610258565b91505092915050565b60006020828403121561030557610304610101565b5b600082013567ffffffffffffffff81111561032357610322610106565b5b61032f848285016102c1565b91505092915050565b7f4e487b7100000000000000000000000000000000000000000000000000000000600052603260045260246000fd5b7f4e487b7100000000000000000000000000000000000000000000000000000000600052601160045260246000fd5b60006103a1826101d2565b91506103ac836101d2565b92508282039050818111156103c4576103c3610367565b5b9291505056fea2646970667358221220c55827313c5c227ae7a9c842c4c217e54c7b2f91306b1ed47afe5c64039f0f8364736f6c634300081c0033",
  "devdoc": {
    "author": "Al Fahim",
    "details": "Uses a fixed time difference of 6 months (15552000 seconds)",
    "kind": "dev",
    "methods": {
      "validate((uint256,uint256)[])": {
        "details": "Reverts with TaskTwo_RulesViolated if any date pair violates the rule",
        "params": {
          "dates": "An array of DateObj structs containing expiry and disbursed dates"
        }
      }
    },
    "title": "Task 2 Validator Contract",
    "version": 1
  },
  "userdoc": {
    "errors": {
      "TaskTwo_RulesViolated()": [
        {
          "notice": "Error thrown when the expiry date is not more than 6 months after the disbursed date"
        }
      ]
    },
    "kind": "user",
    "methods": {
      "validate((uint256,uint256)[])": {
        "notice": "Validates that the expiry date is more than 6 months after the disbursed date for each item"
      }
    },
    "notice": "Validates that each expiry date is at least 6 months after the disbursed date",
    "version": 1
  },
  "storageLayout": {
    "storage": [
      {
        "astId": 9,
        "contract": "contracts/task2.sol:Task2",
        "label": "timeDifferance",
        "offset": 0,
        "slot": "0",
        "type": "t_uint256"
      }
    ],
    "types": {
      "t_uint256": {
        "encoding": "inplace",
        "label": "uint256",
        "numberOfBytes": "32"
      }
    }
  }
}