{
  "address": "0x2c1fE11A83B25A3BFe3F4867f8691c082A66d264",
  "abi": [
    {
      "inputs": [],
      "name": "TaskTwo_RulesViolated",
      "type": "error"
    },
    {
      "inputs": [
        {
          "components": [
            {
              "internalType": "uint256",
              "name": "expiryDate",
              "type": "uint256"
            },
            {
              "internalType": "uint256",
              "name": "disbursedDate",
              "type": "uint256"
            }
          ],
          "internalType": "struct Task2.DateObj[]",
          "name": "dates",
          "type": "tuple[]"
        }
      ],
      "name": "validate",
      "outputs": [],
      "stateMutability": "pure",
      "type": "function"
    }
  ],
  "transactionHash": "0x53946d5da31fef43aa6573bac7d1c3b2096a83d95a7de0e154515eb8db4f1558",
  "args": [],
  "numDeployments": 2,
  "solcInputHash": "f2119caaab8f4abd4bbd73facda03cff",
  "bytecode": "0x6080604052348015600f57600080fd5b506104018061001f6000396000f3fe608060405234801561001057600080fd5b506004361061002b5760003560e01c80633ea7346914610030575b600080fd5b61004a600480360381019061004591906102f0565b61004c565b005b60008151905060005b818110156100f357600083828151811061007257610071610339565b5b60200260200101516020015184838151811061009157610090610339565b5b6020026020010151600001516100a79190610397565b905062ed4e0081116100e5576040517ffa471b7200000000000000000000000000000000000000000000000000000000815260040160405180910390fd5b508080600101915050610055565b505050565b6000604051905090565b600080fd5b600080fd5b600080fd5b6000601f19601f8301169050919050565b7f4e487b7100000000000000000000000000000000000000000000000000000000600052604160045260246000fd5b61015a82610111565b810181811067ffffffffffffffff8211171561017957610178610122565b5b80604052505050565b600061018c6100f8565b90506101988282610151565b919050565b600067ffffffffffffffff8211156101b8576101b7610122565b5b602082029050602081019050919050565b600080fd5b600080fd5b6000819050919050565b6101e6816101d3565b81146101f157600080fd5b50565b600081359050610203816101dd565b92915050565b60006040828403121561021f5761021e6101ce565b5b6102296040610182565b90506000610239848285016101f4565b600083015250602061024d848285016101f4565b60208301525092915050565b600061026c6102678461019d565b610182565b9050808382526020820190506040840283018581111561028f5761028e6101c9565b5b835b818110156102b857806102a48882610209565b845260208401935050604081019050610291565b5050509392505050565b600082601f8301126102d7576102d661010c565b5b81356102e7848260208601610259565b91505092915050565b60006020828403121561030657610305610102565b5b600082013567ffffffffffffffff81111561032457610323610107565b5b610330848285016102c2565b91505092915050565b7f4e487b7100000000000000000000000000000000000000000000000000000000600052603260045260246000fd5b7f4e487b7100000000000000000000000000000000000000000000000000000000600052601160045260246000fd5b60006103a2826101d3565b91506103ad836101d3565b92508282039050818111156103c5576103c4610368565b5b9291505056fea26469706673582212202017dcb8ba96edcd8f87cf1d1627d3c9e6f3a617d6aca12cb737b06e6977570464736f6c634300081c0033",
  "devdoc": {
    "kind": "dev",
    "methods": {
      "validate((uint256,uint256)[])": {
        "details": "Reverts with TaskTwo_RulesViolated if any date pair violates the rule",
        "params": {
          "dates": "An array of DateObj structs containing expiry and disbursed dates"
        }
      }
    },
    "version": 1
  },
  "userdoc": {
    "errors": {
      "TaskTwo_RulesViolated()": [
        {
          "notice": "Error thrown when the expiry date is not more than 6 months after the disbursed date"
        }
      ]
    },
    "kind": "user",
    "methods": {
      "validate((uint256,uint256)[])": {
        "notice": "Validates that the expiry date is more than 6 months after the disbursed date for each item"
      }
    },
    "version": 1
  },
  "storageLayout": {
    "storage": [],
    "types": null
  }
}