{
  "address": "0x58573e0644193a30579a216a396B5Aee546b741E",
  "abi": [
    {
      "inputs": [],
      "stateMutability": "nonpayable",
      "type": "constructor"
    },
    {
      "inputs": [
        {
          "internalType": "bytes32[]",
          "name": "fieldHashes",
          "type": "bytes32[]"
        }
      ],
      "name": "isCompliant",
      "outputs": [
        {
          "internalType": "bool",
          "name": "",
          "type": "bool"
        }
      ],
      "stateMutability": "view",
      "type": "function"
    },
    {
      "inputs": [],
      "name": "owner",
      "outputs": [
        {
          "internalType": "address",
          "name": "",
          "type": "address"
        }
      ],
      "stateMutability": "view",
      "type": "function"
    }
  ],
  "transactionHash": "0xb219ba3c4cc887813dfc91e9b3f04ada25e3572155c266f45715b4e9ba53d938",
  "args": [],
  "numDeployments": 2,
  "solcInputHash": "85558a2f1e004ed129ab039d5be8228b",
  "bytecode": "0x608060405234801561001057600080fd5b5033600160006101000a81548173ffffffffffffffffffffffffffffffffffffffff021916908373ffffffffffffffffffffffffffffffffffffffff16021790555060016000807f5d3575d1a0ab5b2f5ee09a5e4fbae19bcaa9f9343659aa29603b2cbc9ab5d99d60001b815260200190815260200160002060006101000a81548160ff02191690831515021790555060016000807f139d14b61cae91c759a05e3f8ece2128cdc1b43d95fd48b9038000d9c1c9c17860001b815260200190815260200160002060006101000a81548160ff02191690831515021790555060016000807f2b93b177b55445f513d73ff1f0f30376d6ec181bcc1bd5cd19cccb970f4ee0d260001b815260200190815260200160002060006101000a81548160ff02191690831515021790555060016000807ff26868afb399d3023e79fa44ef170111f5a24802fc72e67895afb3f21e643d0360001b815260200190815260200160002060006101000a81548160ff02191690831515021790555060016000807f44863b03e9909b7100e05b02526909a346fd7455183f6619e0fe6198c89981e060001b815260200190815260200160002060006101000a81548160ff02191690831515021790555060016000807f4476e4c39678d4b41598a27487939aa5fb6f0a34dd75615ea0f2fdc3ad45af7c60001b815260200190815260200160002060006101000a81548160ff02191690831515021790555060016000807fe9e08adf4a878a37bc2baa9ea24fabf533076045d996da9aaf5f4765d4266aa560001b815260200190815260200160002060006101000a81548160ff02191690831515021790555060016000807f0bd025a21dff5177fb5a00614b6bc9c4e901cb58ad4ef08f5d983153e89b21c160001b815260200190815260200160002060006101000a81548160ff02191690831515021790555060016000807ffdf2e20af1f856577c4da7bbdd112e00e3203f1891517e0e48521d756af397e160001b815260200190815260200160002060006101000a81548160ff02191690831515021790555060016000807fd296add506bba3096a4fc9610f514b5149710f4bcad72f0cd5c4c7e7b45b1a1e60001b815260200190815260200160002060006101000a81548160ff02191690831515021790555060016000807f950ddb2960435690c9ebf10604b5c24cab994c7460eb0f2425881dac74fc2b4e60001b815260200190815260200160002060006101000a81548160ff02191690831515021790555060016000807fce5f28b261d6dc9be110cbb9d067faf11bec284acd10bfe7170292c56dc0189360001b815260200190815260200160002060006101000a81548160ff02191690831515021790555060016000807fa0f654c753e25a17a44da09f3d1ea0da1699352f70fc9676bd1988cc42c77f9c60001b815260200190815260200160002060006101000a81548160ff02191690831515021790555060016000807f6506da55e434cc2750e73a988466a1e79a6dbecbf7db7e0b0b1a9a4e6b25599060001b815260200190815260200160002060006101000a81548160ff0219169083151502179055506102d6806104a56000396000f3fe608060405234801561001057600080fd5b50600436106100365760003560e01c80638da5cb5b1461003b5780639bcc852514610059575b600080fd5b610043610089565b6040516100509190610164565b60405180910390f35b610073600480360381019061006e91906101ee565b6100af565b6040516100809190610256565b60405180910390f35b600160009054906101000a900473ffffffffffffffffffffffffffffffffffffffff1681565b600080600090505b83839050811015610117576000808585848181106100d8576100d7610271565b5b90506020020135815260200190815260200160002060009054906101000a900460ff161561010a57600091505061011d565b80806001019150506100b7565b50600190505b92915050565b600073ffffffffffffffffffffffffffffffffffffffff82169050919050565b600061014e82610123565b9050919050565b61015e81610143565b82525050565b60006020820190506101796000830184610155565b92915050565b600080fd5b600080fd5b600080fd5b600080fd5b600080fd5b60008083601f8401126101ae576101ad610189565b5b8235905067ffffffffffffffff8111156101cb576101ca61018e565b5b6020830191508360208202830111156101e7576101e6610193565b5b9250929050565b600080602083850312156102055761020461017f565b5b600083013567ffffffffffffffff81111561022357610222610184565b5b61022f85828601610198565b92509250509250929050565b60008115159050919050565b6102508161023b565b82525050565b600060208201905061026b6000830184610247565b92915050565b7f4e487b7100000000000000000000000000000000000000000000000000000000600052603260045260246000fdfea2646970667358221220f2b17dcd77f7dae799bdcf22c722636d71b0e5f25495d3c2e53fb934ff31480564736f6c634300081c0033",
  "devdoc": {
    "author": "Omitul Islam",
    "details": "Uses a mapping of hashed field names to determine non-compliance",
    "kind": "dev",
    "methods": {
      "isCompliant(bytes32[])": {
        "params": {
          "fieldHashes": "An array of hashed field names to check for GDPR compliance"
        },
        "returns": {
          "_0": "Returns false if any field is blacklisted, true otherwise!"
        }
      }
    },
    "title": "Task 1 GDPR Compliance Validator",
    "version": 1
  },
  "userdoc": {
    "kind": "user",
    "methods": {
      "constructor": {
        "notice": "Initializes the contract, sets the owner, and populates the blacklist with hardcoded hashes"
      },
      "isCompliant(bytes32[])": {
        "notice": "Checks if any of the provided field hashes are blacklisted"
      },
      "owner()": {
        "notice": "The address of the contract deployer (owner)"
      }
    },
    "notice": "Validates that provided hashed field names are not in the predefined blacklist",
    "version": 1
  },
  "storageLayout": {
    "storage": [
      {
        "astId": 7,
        "contract": "contracts/task1.sol:Task1",
        "label": "blacklistedFields",
        "offset": 0,
        "slot": "0",
        "type": "t_mapping(t_bytes32,t_bool)"
      },
      {
        "astId": 10,
        "contract": "contracts/task1.sol:Task1",
        "label": "owner",
        "offset": 0,
        "slot": "1",
        "type": "t_address"
      }
    ],
    "types": {
      "t_address": {
        "encoding": "inplace",
        "label": "address",
        "numberOfBytes": "20"
      },
      "t_bool": {
        "encoding": "inplace",
        "label": "bool",
        "numberOfBytes": "1"
      },
      "t_bytes32": {
        "encoding": "inplace",
        "label": "bytes32",
        "numberOfBytes": "32"
      },
      "t_mapping(t_bytes32,t_bool)": {
        "encoding": "mapping",
        "key": "t_bytes32",
        "label": "mapping(bytes32 => bool)",
        "numberOfBytes": "32",
        "value": "t_bool"
      }
    }
  }
}